:100000000C945D000C9485000C9485000C94850084
:100010000C9485000C9485000C9485000C9485004C
:100020000C9485000C9485000C9485000C9485003C
:100030000C9485000C9485000C9485000C9485002C
:100040000C946C020C9485000C9485000C94850033
:100050000C9485000C9485000C9485000C9485000C
:100060000C94B6020C948500000000080002010008
:100070000003040700000000000000000000000072
:10008000250028002B0000000000240027002A0083
:10009000040404040404040402020202020203032E
:1000A0000303030301020408102040800102040836
:1000B00010200102040810207D0411241FBECFEF80
:1000C000D8E0DEBFCDBF11E0A0E0B1E0ECE2F9E0A6
:1000D00002C005900D92A231B107D9F721E0A2E14B
:1000E000B1E001C01D92A43CB207E1F710E0CDE5FC
:1000F000D0E004C02197FE010E948E04CC35D107C8
:10010000C9F70E94D5030C9494040C94000090E06D
:10011000FC01EC55FF4F249180579F4FFC018491C7
:10012000882399F090E0880F991FFC01EA57FF4F50
:10013000A591B491FC01E458FF4F859194918FB73C
:10014000F894EC91E22BEC938FBF0895E091B60107
:10015000F091B701309729F01092B1011092B001DF
:1001600009940895CF93DF93AC01E091B401F0912D
:10017000B5013097F1F09091B3018091B2019817D9
:10018000C0F090E0292F30E02617370754F4D9014A
:10019000AD5EBE4F240F351FE90128812C939F5F70
:1001A000F1CF1092B3016093B201CB01DF91CF91F7
:1001B0000994DF91CF91089590E0FC01E859FF4F39
:1001C0002491FC01EC55FF4F3491FC01E057FF4FA7
:1001D000E491EE23C9F0222339F0233001F1A8F491
:1001E000213019F1223029F1F0E0EE0FFF1FE45821
:1001F000FF4FA591B4918FB7F894EC91611126C08F
:1002000030953E233C938FBF08952730A9F02830C6
:10021000C9F0243049F7809180008F7D03C0809120
:1002200080008F7780938000DFCF84B58F7784BD87
:10023000DBCF84B58F7DFBCF8091B0008F7780932B
:10024000B000D2CF8091B0008F7DF9CF3E2BDACFB6
:100250003FB7F8948091A8019091A901A091AA01BB
:10026000B091AB0126B5A89B05C02F3F19F00196B0
:10027000A11DB11D3FBFBA2FA92F982F8827BC0100
:10028000CD01620F711D811D911D42E0660F771F28
:10029000881F991F4A95D1F7089520915901260F7B
:1002A0003327331F21323105ECF420917D01FC010D
:1002B00090E080E0243069F082E00895A091590137
:1002C0002191AC01475C5E4FA40FB52FB11D2C935B
:1002D0000196861798F380915901680F6093590130
:1002E00080E0089581E0089510927D0181E080937F
:1002F0007F0110927E0161E082E10E94DC0061E0FA
:1003000083E10E94DC00E9EBF0E080818E7F808356
:1003100080818D7F808388E48093B80085E480931A
:10032000BC0008950895E091B3018091B201E817EF
:1003300030F4F0E0ED5EFE4F808190E008958FEFA5
:100340009FEF08959091B3018091B2012FEF3FEF9D
:10035000981748F4E92FF0E0ED5EFE4F208130E081
:100360009F5F9093B301C90108958091B20190916C
:10037000B301891B990B0895CF93DF93CB01EA0159
:10038000642F0E944D01CE01DF91CF910895CF934C
:10039000DF931F92CDB7DEB7698361E0CE0101968E
:1003A0000E944D0181E090E00F90DF91CF91089580
:1003B00090E080E008956091120188EB91E00C9448
:1003C000C7019091B2018091B301981769F188EB50
:1003D00091E00E94A20180931201883090F7E82FEB
:1003E000880FFF0BEA50FE4F0C948E04FE010302AF
:1003F000050208020A020D020F02120261E08CE0FF
:100400000E94DC00DECF60E0FACF60E08BE0F8CF46
:1004100061E0FCCF60E08AE0F3CF61E0FCCF61E017
:1004200089E0EECF60E0FCCF0895CF93DF9385EDB8
:100430008093BC008091350190913601A0913701E5
:10044000B09138010796A11DB11D23E0B695A7957F
:10045000979587952A95D1F72091BC0024FD03C07C
:1004600010927D0136C04091350150913601609166
:10047000370170913801452B462B472B69F30097C4
:10048000A105B10541F025E32A95F1F70000019798
:10049000A109B109E1CF8091340191E0909333013A
:1004A0008823B9F0C091B800D091BA008091BC0007
:1004B0008A7B8093BC0060E082E10E94DC0060E007
:1004C00083E10E94DC000E947401D093BA00C093C3
:1004D000B800DF91CF9108951F920F920FB60F923F
:1004E00011242F933F938F939F93AF93BF9380914A
:1004F000A4019091A501A091A601B091A70130910E
:10050000A30123E0230F2D3758F50196A11DB11D3E
:100510002093A3018093A4019093A501A093A60129
:10052000B093A7018091A8019091A901A091AA017F
:10053000B091AB010196A11DB11D8093A8019093CC
:10054000A901A093AA01B093AB01BF91AF919F9174
:100550008F913F912F910F900FBE0F901F90189584
:1005600026E8230F0296A11DB11DD2CF1F920F9234
:100570000FB60F9211242F933F934F935F936F9376
:100580007F938F939F93AF93BF93EF93FF9380914C
:10059000B900887F803609F44AC0F0F5883209F442
:1005A000A7C018F5803109F49BC0B8F4882309F47A
:1005B000F9C0883009F494C0FF91EF91BF91AF91D9
:1005C0009F918F917F916F915F914F913F912F916B
:1005D0000F900FBE0F901F901895883109F488C0B6
:1005E000803251F780937C0114C0803409F49DC09F
:1005F00040F48033B9F38833F9F680937C0185ECBD
:10060000B0C0803509F485C0883509F496C08834B7
:1006100099F60E941502D0CF883909F48CC038F5BC
:10062000883729F050F4883611F0803729F683E0B6
:1006300080937D0110927B0157C0883809F47BC0FC
:10064000803919F0803809F0B7CF80917B01803272
:1006500008F071C0E0917B0181E08E0F80937B01F7
:100660008091BB00F0E0E55AFE4F80833DC0803BA7
:1006700039F0E0F4803A09F479C0883A09F09CCF67
:1006800084E080937D0110925A0110925901E0910B
:10069000AE01F091AF0109958091590181110FC010
:1006A00081E0809359011092390109C0803C09F41E
:1006B000A6CF883C09F4A3CF883B09F07DCFE09119
:1006C0005A0181E08E0F80935A01F0E0E75CFE4F03
:1006D00080818093BB0090915A018091590129C07B
:1006E0008091A2018093BB0085EC8093BC0064CF15
:1006F0009091A1018091A001981758F5E091A10176
:1007000081E08E0F8093A101F0E0E058FE4F8081E0
:10071000E9CFE091A10181E08E0F8093A10180914A
:10072000BB00F0E0E058FE4F80839091A1018091E2
:10073000A0019817C8F285E8D8CFE091A10181E027
:100740008E0F8093A1018091BB00F0E0E058FE4F36
:10075000808380917F0181115CCF81E080937E0155
:1007600084EA8093BC0010927D0126CF85EC8093B3
:10077000BC0010927D0180917B01803230F4E091C9
:100780007B01F0E0E55AFE4F108260917B0170E042
:10079000E091AC01F091AD018BE591E009951092EB
:1007A0007B010ACF10927C0134CF789484B58260AB
:1007B00084BD84B5816084BD85B5826085BD85B505
:1007C000816085BD80916E00816080936E00109283
:1007D00081008091810082608093810080918100FE
:1007E000816080938100809180008160809380008F
:1007F0008091B10084608093B1008091B0008160ED
:100800008093B00080917A00846080937A00809118
:100810007A00826080937A0080917A008160809370
:100820007A0080917A00806880937A001092C100EB
:1008300085B78F7E85BF88B1806388B987B18F7C8B
:1008400087B91092B3011092B2011092B1011092C7
:10085000B0010E94740186EA90E09093AF0180930A
:10086000AE0182EB90E09093AD018093AC0180E10A
:100870008093BA0081EE91E09093B5018093B4012A
:100880008BED91E09093B7018093B6018CE00E94CC
:1008900087008BE00E9487008AE00E94870089E041
:1008A0000E948700C0E0D0E00E9428014B015C015B
:1008B00084E6C82ED12CE12CF12C0E942801681965
:1008C00079098A099B09683E734081059105A8F35F
:1008D00021E0C21AD108E108F10888EE880E83E011
:1008E000981EA11CB11CC114D104E104F10429F724
:1008F0002097D1F20E940000D7CFE8EBF1E01382FD
:10090000128288EE93E0A0E0B0E084839583A68312
:10091000B78384E091E0918380830895EE0FFF1FF9
:0C0920000590F491E02D0994F894FFCFAD
:10092C0000000000C701BC01D8019201B501A20171
:02093C00930125
:00000001FF
