:100000000C945D000C9485000C9485000C94850084
:100010000C9485000C9485000C9485000C9485004C
:100020000C9485000C9485000C9485000C9485003C
:100030000C9485000C9485000C9485000C9485002C
:100040000C9474020C9485000C9485000C9485002B
:100050000C9485000C9485000C9485000C9485000C
:100060000C94BE020C948500000000080002010000
:100070000003040700000000000000000000000072
:10008000250028002B0000000000240027002A0083
:10009000040404040404040402020202020203032E
:1000A0000303030301020408102040800102040836
:1000B0001020010204081020850411241FBECFEF78
:1000C000D8E0DEBFCDBF11E0A0E0B1E0ECE3F9E0A5
:1000D00002C005900D92A232B107D9F721E0A2E249
:1000E000B1E001C01D92A43DB207E1F710E0CDE5FB
:1000F000D0E004C02197FE010E949604CC35D107C0
:10010000C9F70E94DD030C949C040C94000090E05D
:10011000FC01EC55FF4F249180579F4FFC018491C7
:10012000882399F090E0880F991FFC01EA57FF4F50
:10013000A591B491FC01E458FF4F859194918FB73C
:10014000F894EC91E22BEC938FBF0895E091C601F7
:10015000F091C701309729F01092C1011092C001AF
:1001600009940895CF93DF93AC01E091C401F0911D
:10017000C5013097F1F09091C3018091C2019817A9
:10018000C0F090E0292F30E02617370754F4D9014A
:10019000AD5DBE4F240F351FE90128812C939F5F71
:1001A000F1CF1092C3016093C201CB01DF91CF91D7
:1001B0000994DF91CF91089590E0FC01E859FF4F39
:1001C0002491FC01EC55FF4F3491FC01E057FF4FA7
:1001D000E491EE23C9F0222339F0233001F1A8F491
:1001E000213019F1223029F1F0E0EE0FFF1FE45821
:1001F000FF4FA591B4918FB7F894EC91611126C08F
:1002000030953E233C938FBF08952730A9F02830C6
:10021000C9F0243049F7809180008F7D03C0809120
:1002200080008F7780938000DFCF84B58F7784BD87
:10023000DBCF84B58F7DFBCF8091B0008F7780932B
:10024000B000D2CF8091B0008F7DF9CF3E2BDACFB6
:100250003FB7F8948091B8019091B901A091BA018B
:10026000B091BB0126B5A89B05C02F3F19F00196A0
:10027000A11DB11D3FBFBA2FA92F982F8827BC0100
:10028000CD01620F711D811D911D42E0660F771F28
:10029000881F991F4A95D1F7089520916901260F6B
:1002A0003327331F21323105ECF420918D01FC01FD
:1002B00090E080E0243069F082E00895A091690127
:1002C0002191AC01475B5E4FA40FB52FB11D2C935C
:1002D0000196861798F380916901680F6093690110
:1002E00080E0089581E0089510928D0181E080936F
:1002F0008F0110928E0161E082E10E94DC0061E0DA
:1003000083E10E94DC00E9EBF0E080818E7F808356
:1003100080818D7F808388E48093B80085E480931A
:10032000BC0008950895E091C3018091C201E817CF
:1003300030F4F0E0ED5DFE4F808190E008958FEFA6
:100340009FEF08959091C3018091C2012FEF3FEF7D
:10035000981748F4E92FF0E0ED5DFE4F208130E082
:100360009F5F9093C301C90108958091C20190914C
:10037000C301891B990B0895CF93DF93CB01EA0149
:10038000642F0E944D01CE01DF91CF910895CF934C
:10039000DF931F92CDB7DEB7698361E0CE0101968E
:1003A0000E944D0181E090E00F90DF91CF91089580
:1003B00090E080E0089580912201803241F44EE087
:1003C00050E060E071E088EC91E00C94BC0108958D
:1003D0009091C2018091C301981771F188EC91E06E
:1003E0000E94A201FC01FF27E830F10510F5E5505D
:1003F000FE4F0C949604030208020A020D020F023B
:1004000012021402170261E08CE00E94DC00E0CFCF
:1004100060E0FACF60E08BE0F8CF61E0FCCF60E015
:100420008AE0F3CF61E0FCCF61E089E0EECF60E0ED
:10043000FCCF80932201CCCF0895CF93DF9385ED3D
:100440008093BC008091450190914601A0914701A5
:10045000B09148010796A11DB11D23E0B695A7955F
:10046000979587952A95D1F72091BC0024FD03C06C
:1004700010928D0136C04091450150914601609126
:10048000470170914801452B462B472B69F3009794
:10049000A105B10541F025E32A95F1F70000019788
:1004A000A109B109E1CF8091440191E0909343010A
:1004B0008823B9F0C091B800D091BA008091BC00F7
:1004C0008A7B8093BC0060E082E10E94DC0060E0F7
:1004D00083E10E94DC000E947401D093BA00C093B3
:1004E000B800DF91CF9108951F920F920FB60F922F
:1004F00011242F933F938F939F93AF93BF9380913A
:10050000B4019091B501A091B601B091B7013091BD
:10051000B30123E0230F2D3758F50196A11DB11D1E
:100520002093B3018093B4019093B501A093B601D9
:10053000B093B7018091B8019091B901A091BA012F
:10054000B091BB010196A11DB11D8093B80190939C
:10055000B901A093BA01B093BB01BF91AF919F9134
:100560008F913F912F910F900FBE0F901F90189574
:1005700026E8230F0296A11DB11DD2CF1F920F9224
:100580000FB60F9211242F933F934F935F936F9366
:100590007F938F939F93AF93BF93EF93FF9380913C
:1005A000B900887F803609F44AC0F0F5883209F432
:1005B000A7C018F5803109F49BC0B8F4882309F46A
:1005C000F9C0883009F494C0FF91EF91BF91AF91C9
:1005D0009F918F917F916F915F914F913F912F915B
:1005E0000F900FBE0F901F901895883109F488C0A6
:1005F000803251F780938C0114C0803409F49DC07F
:1006000040F48033B9F38833F9F680938C0185EC9C
:10061000B0C0803509F485C0883509F496C08834A7
:1006200099F60E941D02D0CF883909F48CC038F5A4
:10063000883729F050F4883611F0803729F683E0A6
:1006400080938D0110928B0157C0883809F47BC0CC
:10065000803919F0803809F0B7CF80918B01803252
:1006600008F071C0E0918B0181E08E0F80938B01C7
:100670008091BB00F0E0E559FE4F80833DC0803B98
:1006800039F0E0F4803A09F479C0883A09F09CCF57
:1006900084E080938D0110926A0110926901E091CB
:1006A000BE01F091BF0109958091690181110FC0D0
:1006B00081E0809369011092490109C0803C09F4EE
:1006C000A6CF883C09F4A3CF883B09F07DCFE09109
:1006D0006A0181E08E0F80936A01F0E0E75BFE4FD4
:1006E00080818093BB0090916A018091690129C04B
:1006F0008091B2018093BB0085EC8093BC0064CFF5
:100700009091B1018091B001981758F5E091B10135
:1007100081E08E0F8093B101F0E0E057FE4F8081C1
:10072000E9CFE091B10181E08E0F8093B10180911A
:10073000BB00F0E0E057FE4F80839091B1018091C3
:10074000B0019817C8F285E8D8CFE091B10181E0F7
:100750008E0F8093B1018091BB00F0E0E057FE4F17
:10076000808380918F0181115CCF81E080938E0125
:1007700084EA8093BC0010928D0126CF85EC809393
:10078000BC0010928D0180918B01803230F4E09199
:100790008B01F0E0E559FE4F108260918B0170E013
:1007A000E091BC01F091BD018BE691E009951092BA
:1007B0008B010ACF10928C0134CF789484B582607B
:1007C00084BD84B5816084BD85B5826085BD85B5F5
:1007D000816085BD80916E00816080936E00109273
:1007E00081008091810082608093810080918100EE
:1007F000816080938100809180008160809380007F
:100800008091B10084608093B1008091B0008160DC
:100810008093B00080917A00846080937A00809108
:100820007A00826080937A0080917A008160809360
:100830007A0080917A00806880937A001092C100DB
:1008400085B78F7E85BF88B1806388B987B18F7C7B
:1008500087B91092C3011092C2011092C101109287
:10086000C0010E94740186EA90E09093BF018093DA
:10087000BE0182EB90E09093BD018093BC0180E1CA
:100880008093BA0088EE91E09093C5018093C401F3
:100890008BED91E09093C7018093C6018CE00E949C
:1008A00087008BE00E9487008AE00E94870089E031
:1008B0000E948700C0E0D0E00E9428014B015C014B
:1008C00084E6C82ED12CE12CF12C0E942801681955
:1008D00079098A099B09683E734081059105A8F34F
:1008E00021E0C21AD108E108F10888EE880E83E001
:1008F000981EA11CB11CC114D104E104F10429F714
:100900002097D1F20E940000D7CFE8ECF1E01382EB
:10091000128288EE93E0A0E0B0E084839583A68302
:10092000B78383E191E0918380830895EE0FFF1FE9
:0C0930000590F491E02D0994F894FFCF9D
:10093C007574696C5F623130305F76303130000035
:10094C00000000C701BC01D8019201B501A20193BE
:02095C00010098
:00000001FF
