:100000000C945D000C9485000C9485000C94850084
:100010000C9485000C9485000C9485000C9485004C
:100020000C9485000C9485000C9485000C9485003C
:100030000C9485000C9485000C9485000C9485002C
:100040000C9475020C9485000C9485000C9485002A
:100050000C9485000C9485000C9485000C9485000C
:100060000C94BF020C9485000000000800020100FF
:100070000003040700000000000000000000000072
:10008000250028002B0000000000240027002A0083
:10009000040404040404040402020202020203032E
:1000A0000303030301020408102040800102040836
:1000B0001020010204081020860411241FBECFEF77
:1000C000D8E0DEBFCDBF11E0A0E0B1E0EEE3F9E0A3
:1000D00002C005900D92A033B107D9F721E0A0E34B
:1000E000B1E001C01D92A23EB207E1F710E0CDE5FC
:1000F000D0E004C02197FE010E949704CC35D107BF
:10010000C9F70E94DE030C949D040C94000090E05B
:10011000FC01EC55FF4F249180579F4FFC018491C7
:10012000882399F090E0880F991FFC01EA57FF4F50
:10013000A591B491FC01E458FF4F859194918FB73C
:10014000F894EC91E22BEC938FBF0895E091D401E9
:10015000F091D501309729F01092CF011092CE0185
:1001600009940895CF93DF93AC01E091D201F0910F
:10017000D3013097F1F09091D1018091D00198177F
:10018000C0F090E0292F30E02617370754F4D9014A
:10019000AF5CBE4F240F351FE90128812C939F5F70
:1001A000F1CF1092D1016093D001CB01DF91CF91BB
:1001B0000994DF91CF91089590E0FC01E859FF4F39
:1001C0002491FC01EC55FF4F3491FC01E057FF4FA7
:1001D000E491EE23C9F0222339F0233001F1A8F491
:1001E000213019F1223029F1F0E0EE0FFF1FE45821
:1001F000FF4FA591B4918FB7F894EC91611126C08F
:1002000030953E233C938FBF08952730A9F02830C6
:10021000C9F0243049F7809180008F7D03C0809120
:1002200080008F7780938000DFCF84B58F7784BD87
:10023000DBCF84B58F7DFBCF8091B0008F7780932B
:10024000B000D2CF8091B0008F7DF9CF3E2BDACFB6
:100250003FB7F8948091C6019091C701A091C80161
:10026000B091C90126B5A89B05C02F3F19F0019692
:10027000A11DB11D3FBFBA2FA92F982F8827BC0100
:10028000CD01620F711D811D911D42E0660F771F28
:10029000881F991F4A95D1F7089520917701260F5D
:1002A0003327331F21323105ECF420919B01FC01EF
:1002B00090E080E0243069F082E00895A091770119
:1002C0002191AC01495A5E4FA40FB52FB11D2C935B
:1002D0000196861798F380917701680F60937701F4
:1002E00080E0089581E0089510929B0181E0809361
:1002F0009D0110929C0161E082E10E94DC0061E0BE
:1003000083E10E94DC00E9EBF0E080818E7F808356
:1003100080818D7F808388E48093B80085E480931A
:10032000BC0008950895E091D1018091D001E817B3
:1003300030F4F0E0EF5CFE4F808190E008958FEFA5
:100340009FEF08959091D1018091D0012FEF3FEF61
:10035000981748F4E92FF0E0EF5CFE4F208130E081
:100360009F5F9093D101C90108958091D001909130
:10037000D101891B990B0895CF93DF93CB01EA013B
:10038000642F0E944D01CE01DF91CF910895CF934C
:10039000DF931F92CDB7DEB7698361E0CE0101968E
:1003A0000E944D0181E090E00F90DF91CF91089580
:1003B00090E080E008959091D0018091D10198174C
:1003C00071F186ED91E00E94A201FC01FF27E83067
:1003D000F10510F5E251FE4F0C949704F601FB0174
:1003E000FD0100020202050207020A0261E08CE040
:1003F0000E94DC00E0CF60E0FACF60E08BE0F8CF55
:1004000061E0FCCF60E08AE0F3CF61E0FCCF61E027
:1004100089E0EECF60E0FCCF80933001CCCF08952F
:10042000CF93DF9385ED8093BC0080915301909131
:100430005401A0915501B09156010796A11DB11D1F
:1004400023E0B695A795979587952A95D1F72091A2
:10045000BC0024FD03C010929B0136C040915301A3
:10046000509154016091550170915601452B462BD6
:10047000472B69F30097A105B10541F025E32A95C3
:10048000F1F700000197A109B109E1CF8091520174
:1004900091E0909351018823B9F0C091B800D091B8
:1004A000BA008091BC008A7B8093BC0060E082E14E
:1004B0000E94DC0060E083E10E94DC000E94740185
:1004C000D093BA00C093B800DF91CF910895809186
:1004D00030014EE050E061E271E0803211F060E006
:1004E00071E086ED91E00C94BC011F920F920FB663
:1004F0000F9211242F933F938F939F93AF93BF93AA
:100500008091C2019091C301A091C401B091C50135
:100510003091C10123E0230F2D3758F50196A11D1D
:10052000B11D2093C1018093C2019093C301A09398
:10053000C401B093C5018091C6019091C701A091FB
:10054000C801B091C9010196A11DB11D8093C601DA
:100550009093C701A093C801B093C901BF91AF9117
:100560009F918F913F912F910F900FBE0F901F90F1
:10057000189526E8230F0296A11DB11DD2CF1F9218
:100580000F920FB60F9211242F933F934F935F93C7
:100590006F937F938F939F93AF93BF93EF93FF934B
:1005A0008091B900887F803609F44AC0F0F588321E
:1005B00009F4A7C018F5803109F49BC0B8F488236A
:1005C00009F4F9C0883009F494C0FF91EF91BF910C
:1005D000AF919F918F917F916F915F914F913F91DB
:1005E0002F910F900FBE0F901F901895883109F42E
:1005F00088C0803251F780939A0114C0803409F486
:100600009DC040F48033B9F38833F9F680939A01A2
:1006100085ECB0C0803509F485C0883509F496C0F2
:10062000883499F60E941002D0CF883909F48CC022
:1006300038F5883729F050F4883611F0803729F6DC
:1006400083E080939B011092990157C0883809F488
:100650007BC0803919F0803809F0B7CF80919901BB
:10066000803208F071C0E091990181E08E0F809393
:1006700099018091BB00F0E0E758FE4F80833DC0B8
:10068000803B39F0E0F4803A09F479C0883A09F007
:100690009CCF84E080939B011092780110927701A7
:1006A000E091CC01F091CD01099580917701811104
:1006B0000FC081E0809377011092570109C0803C00
:1006C00009F4A6CF883C09F4A3CF883B09F07DCF7D
:1006D000E091780181E08E0F80937801F0E0E95A93
:1006E000FE4F80818093BB009091780180917701CB
:1006F00029C08091C0018093BB0085EC8093BC0031
:1007000064CF9091BF018091BE01981758F5E09198
:10071000BF0181E08E0F8093BF01F0E0E256FE4FF3
:100720008081E9CFE091BF0181E08E0F8093BF010E
:100730008091BB00F0E0E256FE4F80839091BF01B4
:100740008091BE019817C8F285E8D8CFE091BF012B
:1007500081E08E0F8093BF018091BB00F0E0E256F4
:10076000FE4F808380919D0181115CCF81E0809359
:100770009C0184EA8093BC0010929B0126CF85ECFB
:100780008093BC0010929B0180919901803230F4DB
:10079000E0919901F0E0E758FE4F108260919901D5
:1007A00070E0E091CA01F091CB0189E791E00995F1
:1007B000109299010ACF10929A0134CF789484B59F
:1007C000826084BD84B5816084BD85B5826085BD4D
:1007D00085B5816085BD80916E00816080936E00DB
:1007E00010928100809181008260809381008091CD
:1007F000810081608093810080918000816080937E
:1008000080008091B10084608093B1008091B0003D
:1008100081608093B00080917A00846080937A0038
:1008200080917A00826080937A0080917A00816062
:1008300080937A0080917A00806880937A00109289
:10084000C10085B78F7E85BF88B1806388B987B1C5
:100850008F7C87B91092D1011092D0011092CF01F4
:100860001092CE010E94740186EA90E09093CD012F
:100870008093CC0182EB90E09093CB018093CA01EE
:1008800080E18093BA008BED91E09093D301809347
:10089000D20187E692E09093D5018093D4018CE059
:1008A0000E9487008BE00E9487008AE00E948700F8
:1008B00089E00E948700C0E0D0E00E9428014B013F
:1008C0005C0184E6C82ED12CE12CF12C0E94280179
:1008D000681979098A099B09683E73408105910569
:1008E000A8F321E0C21AD108E108F10888EE880EC9
:1008F00083E0981EA11CB11CC114D104E104F104D1
:1009000029F72097D1F20E940000D7CFE6EDF1E061
:100910001382128288EE93E0A0E0B0E08483958396
:10092000A683B78383E191E0918380830895EE0FDE
:0E093000FF1F0590F491E02D0994F894FFCF7D
:10093E007574696C5F623130305F76303130000033
:10094E00000000C701BC01D8019201B501A20193BC
:10095E000168656C6C6F20776F726C6421212100C9
:00000001FF
