:100000000C945D000C9485000C9485000C94850084
:100010000C9485000C9485000C9485000C9485004C
:100020000C9485000C9485000C9485000C9485003C
:100030000C9485000C9485000C9485000C9485002C
:100040000C945B030C9485000C9485000C94850043
:100050000C9485000C94C4040C9485000C948500C9
:100060000C94A5030C948500000000080002010018
:100070000003040700000000000000000000000072
:10008000250028002B0000000000240027002A0083
:10009000040404040404040402020202020203032E
:1000A0000303030301020408102040800102040836
:1000B0001020010204081020390611241FBECFEFC2
:1000C000D8E0DEBFCDBF11E0A0E0B1E0EEE6FDE09C
:1000D00002C005900D92AE33B107D9F722E0AEE32E
:1000E000B1E001C01D92AC34B207E1F710E0CDE5FC
:1000F000D0E004C02197FE010E94AF06CC35D107A5
:10010000C9F70E948E050C94B5060C94000090E08F
:10011000FC01EC55FF4F249180579F4FFC018491C7
:10012000882399F090E0880F991FFC01EA57FF4F50
:10013000A591B491FC01E458FF4F859194918FB73C
:10014000F894EC91E22BEC938FBF0895E0913E027E
:10015000F0913F02309729F0109239021092380244
:1001600009940895CF93DF93AC01E0913C02F091A4
:100170003D023097F1F090913B0280913A0298173E
:10018000C0F090E0292F30E02617370754F4D9014A
:10019000A556BE4F240F351FE90128812C939F5F80
:1001A000F1CF10923B0260933A02CB01DF91CF91E5
:1001B0000994DF91CF91089590E0FC01E859FF4F39
:1001C0002491FC01EC55FF4F3491FC01E057FF4FA7
:1001D000E491EE23C9F0222339F0233001F1A8F491
:1001E000213019F1223029F1F0E0EE0FFF1FE45821
:1001F000FF4FA591B4918FB7F894EC91611126C08F
:1002000030953E233C938FBF08952730A9F02830C6
:10021000C9F0243049F7809180008F7D03C0809120
:1002200080008F7780938000DFCF84B58F7784BD87
:10023000DBCF84B58F7DFBCF8091B0008F7780932B
:10024000B000D2CF8091B0008F7DF9CF3E2BDACFB6
:100250001F93CF93DF93182FEB010E948700209705
:1002600039F460E0812FDF91CF911F910C94DC0075
:10027000CF3FD10511F461E0F5CFE12FF0E0E8596F
:10028000FF4FE491E33031F140F4E130B1F0E2307E
:10029000E1F0C038D1057CF7E4CFE73029F1E83050
:1002A00059F1E430B1F78091800080628093800042
:1002B000D0938B00C0938A0004C084B5806884BD4D
:1002C000C7BDDF91CF911F91089584B5806284BD31
:1002D000C8BDF7CF80918000806880938000D09364
:1002E0008900C0938800EDCF8091B0008068809332
:1002F000B000C093B300E5CF8091B00080628093DE
:10030000B000C093B400DDCF3FB7F89480913002C5
:1003100090913102A0913202B091330226B5A89B90
:1003200005C02F3F19F00196A11DB11D3FBFBA2F87
:10033000A92F982F8827BC01CD01620F711D811D47
:10034000911D42E0660F771F881F991F4A95D1F7CC
:1003500008958F929F92AF92BF92CF92DF92EF92C9
:10036000FF924B015C010E9484016B017C010E94A1
:1003700084016C197D098E099F09683E73408105CF
:100380009105A8F321E0821A9108A108B10888EE2E
:10039000C80E83E0D81EE11CF11C81149104A10455
:1003A000B10429F7FF90EF90DF90CF90BF90AF900E
:1003B0009F908F9008952091E101260F3327331FDE
:1003C00021323105ECF420910502FC0190E080E03F
:1003D000243069F082E00895A091E1012191AC01FF
:1003E0004F535E4FA40FB52FB11D2C930196861766
:1003F00098F38091E101680F6093E10180E0089536
:1004000081E008951092050281E080930702109226
:10041000060261E082E10E94DC0061E083E10E946B
:10042000DC00E9EBF0E080818E7F808380818D7F2E
:10043000808388E48093B80085E48093BC000895AD
:100440000895E0913B0280913A02E81730F4F0E021
:10045000E556FE4F808190E008958FEF9FEF08955D
:1004600090913B0280913A022FEF3FEF981748F4AA
:10047000E92FF0E0E556FE4F208130E09F5F90933A
:100480003B02C901089580913A0290913B02891B79
:10049000990B0895CF93DF93CB01EA01642F0E945B
:1004A000DB01CE01DF91CF910895CF93DF931F92AF
:1004B000CDB7DEB7698361E0CE0101960E94DB0112
:1004C00081E090E00F90DF91CF91089590E080E07F
:1004D0000895809140018332E9F040F4803289F040
:1004E00060910001823241F0A89508958432A9F00C
:1004F000609103018532C1F780E492E00E945502C9
:10050000F3CF4EE050E064E171E080E492E00E94BD
:100510004A02EACF60910101EFCF60910201ECCF76
:10052000CF92DF92EF92FF920F931F93CF93DF93BF
:10053000CAE0D0E009E010E083E0E82EF12C9BE077
:10054000C92ED12C90913A0280913B02981709F460
:1005500052C080E492E00E943002BC0177276230F2
:10056000710551F1CCF46130710509F120913E0122
:1005700030913F0121153105D9F12930310591F133
:100580002CF52330310589F1822F0E942801109229
:100590003F0110923E01D6CF6330710591F0643077
:1005A000710521F7F0923F01E0923E01CBCFD0924E
:1005B0003F01C0923E01C6CFD0933F01C0933E01A0
:1005C000C1CF10933F0100933E01BCCF2A303105CB
:1005D00031F02B303105C1F680930001D5CF8093E7
:1005E0000101D2CF80930201CFCF80930301CCCF02
:1005F00080934001A7CFDF91CF911F910F91FF9082
:10060000EF90DF90CF900895CF93DF9385ED8093A7
:10061000BC008091BD019091BE01A091BF01B0913D
:10062000C0010796A11DB11D23E0B695A79597952A
:1006300087952A95D1F72091BC0024FD03C0109224
:10064000050236C04091BD015091BE016091BF01CD
:100650007091C001452B462B472B69F30097A105EC
:10066000B10541F025E32A95F1F700000197A109B2
:10067000B109E1CF8091BC0191E09093BB01882347
:10068000B9F0C091B800D091BA008091BC008A7BCB
:100690008093BC0060E082E10E94DC0060E083E1C6
:1006A0000E94DC000E940202D093BA00C093B800FE
:1006B000DF91CF9108951F920F920FB60F921124E0
:1006C0002F933F938F939F93AF93BF9380912C026F
:1006D00090912D02A0912E02B0912F0230912B0209
:1006E00023E0230F2D3758F50196A11DB11D20934E
:1006F0002B0280932C0290932D02A0932E02B09394
:100700002F028091300290913102A0913202B0917B
:1007100033020196A11DB11D8093300290933102E6
:10072000A0933202B0933302BF91AF919F918F910A
:100730003F912F910F900FBE0F901F90189526E8B4
:10074000230F0296A11DB11DD2CF1F920F920FB69B
:100750000F9211242F933F934F935F936F937F9347
:100760008F939F93AF93BF93EF93FF938091B900C3
:10077000887F803609F44AC0F0F5883209F4A7C0B2
:1007800018F5803109F49BC0B8F4882309F4F9C046
:10079000883009F494C0FF91EF91BF91AF919F9180
:1007A0008F917F916F915F914F913F912F910F901A
:1007B0000FBE0F901F901895883109F488C08032C1
:1007C00051F78093040214C0803409F49DC040F4B2
:1007D0008033B9F38833F9F68093040285ECB0C016
:1007E000803509F485C0883509F496C0883499F6B7
:1007F0000E940403D0CF883909F48CC038F58837BB
:1008000029F050F4883611F0803729F683E0809380
:1008100005021092030257C0883809F47BC0803962
:1008200019F0803809F0B7CF80910302803208F0C8
:1008300071C0E091030281E08E0F809303028091EA
:10084000BB00F0E0ED51FE4F80833DC0803B39F0AE
:10085000E0F4803A09F479C0883A09F09CCF84E04A
:10086000809305021092E2011092E101E0913602BC
:10087000F091370209958091E10181110FC081E06B
:100880008093E1011092C10109C0803C09F4A6CF18
:10089000883C09F4A3CF883B09F07DCFE091E201C9
:1008A00081E08E0F8093E201F0E0EF53FE4F8081F4
:1008B0008093BB009091E2018091E10129C0809179
:1008C0002A028093BB0085EC8093BC0064CF90919A
:1008D000290280912802981758F5E091290281E0B9
:1008E0008E0F80932902F0E0E85FFD4F8081E9CF11
:1008F000E091290281E08E0F809329028091BB0054
:10090000F0E0E85FFD4F80839091290280912802FA
:100910009817C8F285E8D8CFE091290281E08E0FC0
:10092000809329028091BB00F0E0E85FFD4F808357
:100930008091070281115CCF81E08093060284EAF6
:100940008093BC001092050226CF85EC8093BC00FA
:100950001092050280910302803230F4E09103028C
:10096000F0E0ED51FE4F10826091030270E0E091E3
:100970003402F091350283EE91E009951092030262
:100980000ACF1092040234CF1F920F920FB60F922B
:100990001124CF92DF92EF92FF920F931F932F9328
:1009A0003F934F935F936F937F938F939F93AF93F7
:1009B000BF93CF93EF93FF93C0917C00C3702091BE
:1009C0007900409178008091990190919A010C2FC3
:1009D00010E0FC013AE0C39FE00DF11D1124EE0F81
:1009E000FF1FE75BFE4F30E0322F2227240F311D1F
:1009F000318320838A3091050CF48AC080917A007B
:100A00008F7B80937A0044E1C49FD001112430E0B1
:100A100020E090E080E070E060E0F901EE0FFF1F61
:100A2000EA0FFB1FE75BFE4F4081518143335105C5
:100A300024F0840F951F6F5F7F4F2F5F3F4F2A3049
:100A4000310559F77801EE0CFF1C6115710511F1A4
:100A50000E948706CB01F701EF5BFE4F6081718139
:100A60006115710509F44FC09801220F331F220F41
:100A7000331FF901EC5FFE4F6F010E948706072EBE
:100A8000000C880B990B0E944C06F6016083718361
:100A900082839383F801E050FF4F608170E0F7019B
:100AA000ED5DFE4F80810E94280110929A01109204
:100AB0009901C33059F1CF5F80917C00807F809392
:100AC0007C0080917C00C82BC0937C0080917A00D0
:100AD000806480937A00FF91EF91CF91BF91AF91A5
:100AE0009F918F917F916F915F914F913F912F9146
:100AF0001F910F91FF90EF90DF90CF900F900FBE5E
:100B00000F901F90189591838083C4CFC0E0D4CFFD
:100B1000019690939A0180939901D8CF789484B5E7
:100B2000826084BD84B5816084BD85B5826085BDE9
:100B300085B5816085BD80916E00816080936E0077
:100B40001092810080918100826080938100809169
:100B5000810081608093810080918000816080931A
:100B600080008091B10084608093B1008091B000DA
:100B700081608093B00080917A00846080937A00D5
:100B800080917A00826080937A0080917A008160FF
:100B900080937A0080917A00806880937A00109226
:100BA000C100F89485B78F7E85BF88B1806388B90E
:100BB00087B187B910923B0210923A021092390223
:100BC000109238020E94020286EA90E09093370267
:100BD0008093360282EB90E090933502809334024A
:100BE00082E18093BA0080E992E090933D02809385
:100BF0003C0289E692E090933F0280933E028BE0B4
:100C00000E9487008AE00E94870089E00E94870096
:100C100083E00E94870065E070E083E00E94280185
:100C20000FB6F894A8958091600088618093600069
:100C3000109260000FBE68EB7BE080E090E00E94C5
:100C4000A90188E199E20FB6F894A8958093600015
:100C50000FBE909360007894C0E0D0E06AE070E04E
:100C600080E090E00E94A9012097C1F30E9400005B
:100C7000F5CFE0E4F2E01382128288EE93E0A0E088
:100C8000B0E084839583A683B7838FE291E091835C
:100C900080830895E89409C097FB3EF49095809571
:100CA000709561957F4F8F4F9F4F9923A9F0F92F32
:100CB00096E9BB279395F695879577956795B795B0
:100CC000F111F8CFFAF4BB0F11F460FF1BC06F5F96
:100CD0007F4F8F4F9F4F16C0882311F096E911C0A8
:100CE000772321F09EE8872F762F05C0662371F0C9
:100CF00096E8862F70E060E02AF09A95660F771FDD
:100D0000881FDAF7880F9695879597F9089597FBCE
:100D1000072E16F4009407D077FD09D00E949B0699
:100D200007FC05D03EF4909581959F4F08957095EE
:100D300061957F4F0895AA1BBB1B51E107C0AA1FF5
:100D4000BB1FA617B70710F0A61BB70B881F991F6C
:100D50005A95A9F780959095BC01CD010895EE0FA5
:0E0D6000FF1F0590F491E02D0994F894FFCF49
:100D6E00BFBFBFBF0000803F0000000000000000BA
:100D7E00000000006C7473795F623130305F763042
:100D8E003230000B000A000900030000000000557D
:0E0D9E00024A026602200243023002210200D5
:00000001FF
