:100000000C945D000C9485000C9485000C94850084
:100010000C9485000C9485000C9485000C9485004C
:100020000C9485000C9485000C9485000C9485003C
:100030000C9485000C9485000C9485000C9485002C
:100040000C9435030C9485000C9485000C94850069
:100050000C9485000C949E040C9485000C948500EF
:100060000C947F030C94850000000008000201003E
:100070000003040700000000000000000000000072
:10008000250028002B0000000000240027002A0083
:10009000040404040404040402020202020203032E
:1000A0000303030301020408102040800102040836
:1000B00010200102040810201F0611241FBECFEFDC
:1000C000D8E0DEBFCDBF11E0A0E0B1E0EAE3FDE0A3
:1000D00002C005900D92AE33B107D9F722E0AEE32E
:1000E000B1E001C01D92AD34B207E1F710E0CDE5FB
:1000F000D0E004C02197FE010E949506CC35D107BF
:10010000C9F70E9468050C949B060C94000090E0CF
:10011000FC01EC55FF4F249180579F4FFC018491C7
:10012000882399F090E0880F991FFC01EA57FF4F50
:10013000A591B491FC01E458FF4F859194918FB73C
:10014000F894EC91E22BEC938FBF0895E0913F027D
:10015000F0914002309729F010923A021092390241
:1001600009940895CF93DF93AC01E0913D02F091A3
:100170003E023097F1F090913C0280913B0298173B
:10018000C0F090E0292F30E02617370754F4D9014A
:10019000A456BE4F240F351FE90128812C939F5F81
:1001A000F1CF10923C0260933B02CB01DF91CF91E3
:1001B0000994DF91CF91089590E0FC01E859FF4F39
:1001C0002491FC01EC55FF4F3491FC01E057FF4FA7
:1001D000E491EE23C9F0222339F0233001F1A8F491
:1001E000213019F1223029F1F0E0EE0FFF1FE45821
:1001F000FF4FA591B4918FB7F894EC91611126C08F
:1002000030953E233C938FBF08952730A9F02830C6
:10021000C9F0243049F7809180008F7D03C0809120
:1002200080008F7780938000DFCF84B58F7784BD87
:10023000DBCF84B58F7DFBCF8091B0008F7780932B
:10024000B000D2CF8091B0008F7DF9CF3E2BDACFB6
:100250001F93CF93DF93182FEB010E948700209705
:1002600039F460E0812FDF91CF911F910C94DC0075
:10027000CF3FD10511F461E0F5CFE12FF0E0E8596F
:10028000FF4FE491E33031F140F4E130B1F0E2307E
:10029000E1F0C038D1057CF7E4CFE73029F1E83050
:1002A00059F1E430B1F78091800080628093800042
:1002B000D0938B00C0938A0004C084B5806884BD4D
:1002C000C7BDDF91CF911F91089584B5806284BD31
:1002D000C8BDF7CF80918000806880938000D09364
:1002E0008900C0938800EDCF8091B0008068809332
:1002F000B000C093B300E5CF8091B00080628093DE
:10030000B000C093B400DDCF3FB7F89480913102C4
:1003100090913202A0913302B091340226B5A89B8D
:1003200005C02F3F19F00196A11DB11D3FBFBA2F87
:10033000A92F982F8827BC01CD01620F711D811D47
:10034000911D42E0660F771F881F991F4A95D1F7CC
:1003500008952091E201260F3327331F2132310502
:10036000ECF420910602FC0190E080E0243069F07A
:1003700082E00895A091E2012191AC014E535E4FBD
:10038000A40FB52FB11D2C930196861798F3809179
:10039000E201680F6093E20180E0089581E0089532
:1003A0001092060281E0809308021092070261E039
:1003B00082E10E94DC0061E083E10E94DC00E9EB65
:1003C000F0E080818E7F808380818D7F808388E4D0
:1003D0008093B80085E48093BC0008950895E0916F
:1003E0003C0280913B02E81730F4F0E0E456FE4F07
:1003F000808190E008958FEF9FEF089590913C02E7
:1004000080913B022FEF3FEF981748F4E92FF0E07F
:10041000E456FE4F208130E09F5F90933C02C9017B
:10042000089580913B0290913C02891B990B08959D
:10043000CF93DF93CB01EA01642F0E94A901CE0183
:10044000DF91CF910895CF93DF931F92CDB7DEB7A1
:10045000698361E0CE0101960E94A90181E090E0EC
:100460000F90DF91CF91089590E080E00895809102
:100470004101833249F140F4803289F060910001FA
:10048000823241F0A8950895843209F16091030108
:100490008532C1F781E492E00E942302F3CF4EE05F
:1004A00050E064E171E081E492E00E9418028091E2
:1004B0004001811105C080916000886080936000D8
:1004C00081E080934001DECF60910101E3CF609134
:1004D0000201E0CFCF92DF92EF92FF920F931F9332
:1004E000CF93DF93CAE0D0E009E010E088E0E82E87
:1004F000F12C9BE0C92ED12C90913B0280913C02C3
:10050000981709F452C081E492E00E94FE01BC01F8
:1005100077276230710551F1CCF46130710509F132
:1005200020913E0130913F0121153105D9F129304B
:10053000310591F12CF52830310589F1822F0E9487
:10054000280110923F0110923E01D6CF6330710511
:1005500091F06430710521F7F0923F01E0923E0185
:10056000CBCFD0923F01C0923E01C6CFD0933F0186
:10057000C0933E01C1CF10933F0100933E01BCCF19
:100580002A30310531F02B303105C1F6809300015E
:10059000D5CF80930101D2CF80930201CFCF80933A
:1005A0000301CCCF80934101A7CFDF91CF911F9161
:1005B0000F91FF90EF90DF90CF900895CF93DF934E
:1005C00085ED8093BC008091BE019091BF01A09108
:1005D000C001B091C1010796A11DB11D23E0B695E0
:1005E000A795979587952A95D1F72091BC0024FD72
:1005F00003C01092060236C04091BE015091BF0167
:100600006091C0017091C101452B462B472B69F3C6
:100610000097A105B10541F025E32A95F1F7000007
:100620000197A109B109E1CF8091BD0191E09093BB
:10063000BC018823B9F0C091B800D091BA00809174
:10064000BC008A7B8093BC0060E082E10E94DC00F9
:1006500060E083E10E94DC000E94D001D093BA00E8
:10066000C093B800DF91CF9108951F920F920FB6FB
:100670000F9211242F933F938F939F93AF93BF9328
:1006800080912D0290912E02A0912F02B091300204
:1006900030912C0223E0230F2D3758F50196A11D30
:1006A000B11D20932C0280932D0290932E02A093D3
:1006B0002F02B09330028091310290913202A091CA
:1006C0003302B09134020196A11DB11D8093310215
:1006D00090933202A0933302B0933402BF91AF9152
:1006E0009F918F913F912F910F900FBE0F901F9070
:1006F000189526E8230F0296A11DB11DD2CF1F9297
:100700000F920FB60F9211242F933F934F935F9345
:100710006F937F938F939F93AF93BF93EF93FF93C9
:100720008091B900887F803609F44AC0F0F588329C
:1007300009F4A7C018F5803109F49BC0B8F48823E8
:1007400009F4F9C0883009F494C0FF91EF91BF918A
:10075000AF919F918F917F916F915F914F913F9159
:100760002F910F900FBE0F901F901895883109F4AC
:1007700088C0803251F78093050214C0803409F498
:100780009DC040F48033B9F38833F9F680930502B5
:1007900085ECB0C0803509F485C0883509F496C071
:1007A000883499F60E94DE02D0CF883909F48CC0D3
:1007B00038F5883729F050F4883611F0803729F65B
:1007C00083E0809306021092040257C0883809F42F
:1007D0007BC0803919F0803809F0B7CF80910402CE
:1007E000803208F071C0E091040281E08E0F8093A6
:1007F00004028091BB00F0E0EC51FE4F80833DC0CD
:10080000803B39F0E0F4803A09F479C0883A09F085
:100810009CCF84E0809306021092E3011092E201E3
:10082000E0913702F091380209958091E20181113F
:100830000FC081E08093E2011092C20109C0803CA8
:1008400009F4A6CF883C09F4A3CF883B09F07DCFFB
:10085000E091E30181E08E0F8093E301F0E0EE533D
:10086000FE4F80818093BB009091E3018091E20173
:1008700029C080912B028093BB0085EC8093BC0043
:1008800064CF90912A0280912902981758F5E0913F
:100890002A0281E08E0F80932A02F0E0E75FFD4F8D
:1008A0008081E9CFE0912A0281E08E0F80932A02B5
:1008B0008091BB00F0E0E75FFD4F808390912A02BA
:1008C000809129029817C8F285E8D8CFE0912A02D2
:1008D00081E08E0F80932A028091BB00F0E0E75FF9
:1008E000FD4F80838091080281115CCF81E080936D
:1008F000070284EA8093BC001092060226CF85ECA2
:100900008093BC001092060280910402803230F481
:10091000E0910402F0E0EC51FE4F1082609104027D
:1009200070E0E0913502F091360284EE91E0099595
:10093000109204020ACF1092050234CF1F920F9238
:100940000FB60F921124CF92DF92EF92FF920F9386
:100950001F932F933F934F935F936F937F938F9347
:100960009F93AF93BF93CF93EF93FF93C0917C007E
:10097000C370209179004091780080919A01909104
:100980009B010C2F10E0FC013AE0C39FE00DF11D2C
:100990001124EE0FFF1FE65BFE4F30E0322F2227BF
:1009A000240F311D318320838A3091050CF48AC0D5
:1009B00080917A008F7B80937A0044E1C49FD001BC
:1009C000112430E020E090E080E070E060E0F90188
:1009D000EE0FFF1FEA0FFB1FE65BFE4F40815181C8
:1009E0004333510524F0840F951F6F5F7F4F2F5FB6
:1009F0003F4F2A30310559F77801EE0CFF1C611585
:100A0000710511F10E946D06CB01F701EE5BFE4FFF
:100A1000608171816115710509F44FC09801220F41
:100A2000331F220F331FF901EC5FFE4F6F010E944D
:100A30006D06072E000C880B990B0E943206F601FA
:100A40006083718382839383F801E050FF4F60815C
:100A500070E0F701ED5DFE4F80810E942801109249
:100A60009B0110929A01C33059F1CF5F80917C00B5
:100A7000807F80937C0080917C00C82BC0937C0099
:100A800080917A00806480937A00FF91EF91CF91FA
:100A9000BF91AF919F918F917F916F915F914F9196
:100AA0003F912F911F910F91FF90EF90DF90CF908A
:100AB0000F900FBE0F901F90189591838083C4CF25
:100AC000C0E0D4CF019690939B0180939A01D8CF38
:100AD000789484B5826084BD84B5816084BD85B519
:100AE000826085BD85B5816085BD80916E00816025
:100AF00080936E00109281008091810082608093CB
:100B000081008091810081608093810080918000CC
:100B10008160809380008091B10084608093B100F7
:100B20008091B00081608093B00080917A008460F1
:100B300080937A0080917A00826080937A0080911D
:100B40007A00816080937A0080917A008068809337
:100B50007A001092C100F89485B78F7E85BF88B166
:100B6000806388B987B187B910923C0210923B022A
:100B700010923A02109239020E94D00186EA90E067
:100B8000909338028093370282EB90E09093360284
:100B90008093350282E18093BA008AE692E09093D6
:100BA0003E0280933D0287E392E09093400280935F
:100BB0003F028BE00E9487008AE00E94870089E064
:100BC0000E94870088E00E948700A89584B7877FED
:100BD00084BF809160008861809360008091600094
:100BE0008962809360007894C0E0D0E00E94840124
:100BF0004B015C018AE0C82ED12CE12CF12C0E9423
:100C00008401681979098A099B09683E7340810546
:100C10009105A8F321E0C21AD108E108F10888EE95
:100C2000880E83E0981EA11CB11CC114D104E104FC
:100C3000F10429F72097D1F20E940000D7CFE1E418
:100C4000F2E01382128288EE93E0A0E0B0E08483A9
:100C50009583A683B7838FE291E091838083089583
:100C6000E89409C097FB3EF4909580957095619546
:100C70007F4F8F4F9F4F9923A9F0F92F96E9BB27FC
:100C80009395F695879577956795B795F111F8CF78
:100C9000FAF4BB0F11F460FF1BC06F5F7F4F8F4FE3
:100CA0009F4F16C0882311F096E911C0772321F0D9
:100CB0009EE8872F762F05C0662371F096E8862F71
:100CC00070E060E02AF09A95660F771F881FDAF7C8
:100CD000880F9695879597F9089597FB072E16F438
:100CE000009407D077FD09D00E94810607FC05D04B
:100CF0003EF4909581959F4F0895709561957F4F33
:100D00000895AA1BBB1B51E107C0AA1FBB1FA61752
:100D1000B70710F0A61BB70B881F991F5A95A9F7A4
:100D200080959095BC01CD010895EE0FFF1F0590B1
:0A0D3000F491E02D0994F894FFCF30
:100D3A00BFBFBFBF0000803F0000000000000000EE
:100D4A00000000006C7473795F623130305F763076
:100D5A003230000B000A00090008000000000023DE
:0E0D6A000218023402EE011102FE01EF010038
:00000001FF
