:100000000C945D000C9485000C9485000C94850084
:100010000C9485000C9485000C9485000C9485004C
:100020000C9485000C9485000C9485000C9485003C
:100030000C9485000C9485000C9485000C9485002C
:100040000C9492030C9485000C9485000C9485000C
:100050000C9485000C94FB040C9485000C94850092
:100060000C94DC030C9485000000000800020100E1
:100070000003040700000000000000000000000072
:10008000250028002B0000000000240027002A0083
:10009000040404040404040402020202020203032E
:1000A0000303030301020408102040800102040836
:1000B0001020010204081020C90611241FBECFEF32
:1000C000D8E0DEBFCDBF11E0A0E0B1E0E2E7F0E1B3
:1000D00002C005900D92A234B107D9F722E0A2E444
:1000E000B1E001C01D92A035B207E1F710E0CDE507
:1000F000D0E004C02197FE010E943108CC35D10721
:10010000C9F70E94E8050C9437080C94000090E0B1
:10011000FC01EC55FF4F249180579F4FFC018491C7
:10012000882399F090E0880F991FFC01EA57FF4F50
:10013000A591B491FC01E458FF4F859194918FB73C
:10014000F894EC91E22BEC938FBF0895E09142027A
:10015000F0914302309729F010923D0210923C0238
:1001600009940895CF93DF93AC01E0914002F091A0
:1001700041023097F1F090913F0280913E02981732
:10018000C0F090E0292F30E02617370754F4D9014A
:10019000A156BE4F240F351FE90128812C939F5F84
:1001A000F1CF10923F0260933E02CB01DF91CF91DD
:1001B0000994DF91CF91089590E0FC01E859FF4F39
:1001C0002491FC01EC55FF4F3491FC01E057FF4FA7
:1001D000E491EE23C9F0222339F0233001F1A8F491
:1001E000213019F1223029F1F0E0EE0FFF1FE45821
:1001F000FF4FA591B4918FB7F894EC91611126C08F
:1002000030953E233C938FBF08952730A9F02830C6
:10021000C9F0243049F7809180008F7D03C0809120
:1002200080008F7780938000DFCF84B58F7784BD87
:10023000DBCF84B58F7DFBCF8091B0008F7780932B
:10024000B000D2CF8091B0008F7DF9CF3E2BDACFB6
:100250001F93CF93DF93182FEB010E948700209705
:1002600039F460E0812FDF91CF911F910C94DC0075
:10027000CF3FD10511F461E0F5CFE12FF0E0E8596F
:10028000FF4FE491E33031F140F4E130B1F0E2307E
:10029000E1F0C038D1057CF7E4CFE73029F1E83050
:1002A00059F1E430B1F78091800080628093800042
:1002B000D0938B00C0938A0004C084B5806884BD4D
:1002C000C7BDDF91CF911F91089584B5806284BD31
:1002D000C8BDF7CF80918000806880938000D09364
:1002E0008900C0938800EDCF8091B0008068809332
:1002F000B000C093B300E5CF8091B00080628093DE
:10030000B000C093B400DDCF3FB7F89480913402C1
:1003100090913502A0913602B091370226B5A89B84
:1003200005C02F3F19F00196A11DB11D3FBFBA2F87
:10033000A92F982F8827BC01CD01620F711D811D47
:10034000911D42E0660F771F881F991F4A95D1F7CC
:1003500008958F929F92AF92BF92CF92DF92EF92C9
:10036000FF924B015C010E9484016B017C010E94A1
:1003700084016C197D098E099F09683E73408105CF
:100380009105A8F321E0821A9108A108B10888EE2E
:10039000C80E83E0D81EE11CF11C81149104A10455
:1003A000B10429F7FF90EF90DF90CF90BF90AF900E
:1003B0009F908F9008952091E501260F3327331FDA
:1003C00021323105ECF420910902FC0190E080E03B
:1003D000243069F082E00895A091E5012191AC01FB
:1003E0004B535E4FA40FB52FB11D2C93019686176A
:1003F00098F38091E501680F6093E50180E008952E
:1004000081E008951092090281E080930B0210921E
:100410000A0261E082E10E94DC0061E083E10E9467
:10042000DC00E9EBF0E080818E7F808380818D7F2E
:10043000808388E48093B80085E48093BC000895AD
:100440000895E0913F0280913E02E81730F4F0E019
:10045000E156FE4F808190E008958FEF9FEF089561
:1004600090913F0280913E022FEF3FEF981748F4A2
:10047000E92FF0E0E156FE4F208130E09F5F90933E
:100480003F02C901089580913E0290913F02891B6D
:10049000990B0895CF93DF93CB01EA01642F0E945B
:1004A000DB01CE01DF91CF910895CF93DF931F92AF
:1004B000CDB7DEB7698361E0CE0101960E94DB0112
:1004C00081E090E00F90DF91CF91089590E080E07F
:1004D000089580914401823209F450C030F4803292
:1004E00091F08132F1F0A8950895843209F44CC05E
:1004F00008F447C0609107018532A9F784E492E0CF
:100500000E945502F0CF4EE050E068E171E084E4D3
:1005100092E00E944A0280916000886080936000AF
:10052000E2CF6091040184E492E00E945502609160
:10053000000184E492E00E9455026091050184E488
:1005400092E00E9455026091010184E492E00E94D1
:1005500055026091060184E492E00E945502609188
:10056000020184E492E00E9455026091070184E454
:1005700092E00E94550260910301C0CF6091040196
:10058000BDCF60910501BACF60910601B7CFCF9280
:10059000DF92EF92FF920F931F93CF93DF93CAE006
:1005A000D0E009E010E088E0E82EF12C9BE0C92EB5
:1005B000D12C90913E0280913F02981709F452C0CD
:1005C00084E492E00E943002BC017727623071051A
:1005D00051F1CCF46130710509F120914201309163
:1005E000430121153105D9F12930310591F12CF55F
:1005F0002830310589F1822F0E9428011092430191
:1006000010924201D6CF6330710591F064307105CC
:1006100021F7F0924301E0924201CBCFD092430107
:10062000C0924201C6CFD0934301C0934201C1CFD3
:100630001093430100934201BCCF2A30310531F0C1
:100640002B303105C1F680930401D5CF809305018D
:10065000D2CF80930601CFCF80930701CCCF809378
:100660004401A7CFDF91CF911F910F91FF90EF90A1
:10067000DF90CF900895CF93DF9385ED8093BC00FA
:100680008091C1019091C201A091C301B091C401B8
:100690000796A11DB11D23E0B695A795979587955F
:1006A0002A95D1F72091BC0024FD03C010920902C5
:1006B00036C04091C1015091C2016091C301709157
:1006C000C401452B462B472B69F30097A105B105C3
:1006D00041F025E32A95F1F700000197A109B1093E
:1006E000E1CF8091C00191E09093BF018823B9F0E0
:1006F000C091B800D091BA008091BC008A7B8093F1
:10070000BC0060E082E10E94DC0060E083E10E94C6
:10071000DC000E940202D093BA00C093B800DF91BF
:10072000CF9108951F920F920FB60F9211242F931D
:100730003F938F939F93AF93BF938091300290919B
:100740003102A0913202B091330230912F0223E0A6
:10075000230F2D3758F50196A11DB11D20932F02AF
:100760008093300290933102A0933202B09333020F
:100770008091340290913502A0913602B0913702F7
:100780000196A11DB11D8093340290933502A09370
:100790003602B0933702BF91AF919F918F913F91F5
:1007A0002F910F900FBE0F901F90189526E8230FE2
:1007B0000296A11DB11DD2CF1F920F920FB60F92BC
:1007C00011242F933F934F935F936F937F938F9356
:1007D0009F93AF93BF93EF93FF938091B900887F6E
:1007E000803609F44AC0F0F5883209F4A7C018F53C
:1007F000803109F49BC0B8F4882309F4F9C088302B
:1008000009F494C0FF91EF91BF91AF919F918F91A7
:100810007F916F915F914F913F912F910F900FBEFC
:100820000F901F901895883109F488C0803251F7D5
:100830008093080214C0803409F49DC040F48033D2
:10084000B9F38833F9F68093080285ECB0C080359F
:1008500009F485C0883509F496C0883499F60E9459
:100860003B03D0CF883909F48CC038F5883729F09C
:1008700050F4883611F0803729F683E0809309021E
:100880001092070257C0883809F47BC0803919F0EC
:10089000803809F0B7CF80910702803208F071C02C
:1008A000E091070281E08E0F809307028091BB00E8
:1008B000F0E0E951FE4F80833DC0803B39F0E0F429
:1008C000803A09F479C0883A09F09CCF84E080939B
:1008D00009021092E6011092E501E0913A02F091CE
:1008E0003B0209958091E50181110FC081E0809361
:1008F000E5011092C50109C0803C09F4A6CF883CEF
:1009000009F4A3CF883B09F07DCFE091E60181E0B7
:100910008E0F8093E601F0E0EB53FE4F80818093D1
:10092000BB009091E6018091E50129C080912E02E3
:100930008093BB0085EC8093BC0064CF90912D0226
:1009400080912C02981758F5E0912D0281E08E0FCE
:1009500080932D02F0E0E45FFD4F8081E9CFE091CC
:100960002D0281E08E0F80932D028091BB00F0E07C
:10097000E45FFD4F808390912D0280912C029817A7
:10098000C8F285E8D8CFE0912D0281E08E0F8093E8
:100990002D028091BB00F0E0E45FFD4F80838091E9
:1009A0000B0281115CCF81E080930A0284EA80937C
:1009B000BC001092090226CF85EC8093BC001092F7
:1009C000090280910702803230F4E0910702F0E0E2
:1009D000E951FE4F10826091070270E0E091380209
:1009E000F091390287EE91E00995109207020ACF43
:1009F0001092080234CF1F920F920FB60F9211245B
:100A0000AF92BF92CF92DF92EF92FF920F931F931C
:100A10002F933F934F935F936F937F938F939F9306
:100A2000AF93BF93CF93DF93EF93FF93C0917C007D
:100A3000C370409179006091780080919D01909100
:100A40009E012C2F30E0FC015AE0C59FE00DF11D06
:100A50001124EE0FFF1FE35BFE4F50E0542F44279D
:100A6000460F511D518340838A3091050CF4AAC072
:100A700080917A008F7B80937A0084E1C89FD001B7
:100A8000112450E040E090E080E070E060E0FA0186
:100A9000EE0FFF1FEA0FFB1FE35BFE4F0190F0819B
:100AA000E02DE333F10524F08E0F9F1F6F5F7F4F22
:100AB0004F5F5F4F4A30510551F7F901EC5FFE4F30
:100AC000D0818901000F111FF901E050FF4F6F0124
:100AD0006115710509F472C00E940908CB01F80183
:100AE000EB5BFE4F608171817901EE0CFF1CEE0C17
:100AF000FF1C6115710509F45EC09701285F3E4F28
:100B000059010E940908072E000C880B990B0E94BE
:100B10007D07F50160837183828393836D2F70E07D
:100B200090E080E00E947D07F701E85FFE4F2081A2
:100B30003181428153810E94DA060E944C07F601FE
:100B40006083F601608170E0F801E95DFE4F80810D
:100B50000E94280110929E0110929D01C33081F1E4
:100B6000CF5F80917C00807F80937C0080917C00AF
:100B7000C82BC0937C0080917A00806480937A00B7
:100B8000FF91EF91DF91CF91BF91AF919F918F91A5
:100B90007F916F915F914F913F912F911F910F9195
:100BA000FF90EF90DF90CF90BF90AF900F900FBE6F
:100BB0000F901F90189591838083B0CFD083C1CFC1
:100BC000C0E0CFCF019690939E0180939D01D3CF3B
:100BD000789484B5826084BD84B5816084BD85B518
:100BE000826085BD85B5816085BD80916E00816024
:100BF00080936E00109281008091810082608093CA
:100C000081008091810081608093810080918000CB
:100C10008160809380008091B10084608093B100F6
:100C20008091B00081608093B00080917A008460F0
:100C300080937A0080917A00826080937A0080911C
:100C40007A00816080937A0080917A008068809336
:100C50007A001092C100F89485B78F7E85BF88B165
:100C6000806388B987B187B910923F0210923E0223
:100C700010923D0210923C020E94020286EA90E02D
:100C800090933B0280933A0282EB90E0909339027A
:100C90008093380282E18093BA0087EC92E09093CF
:100CA00041028093400289E692E090934302809350
:100CB00042028BE00E9487008AE00E94870089E060
:100CC0000E94870088E00E94870080917C008064F9
:100CD00080937C0080917A008F6880937A00A89539
:100CE00084B7877F84BF80916000886180936000B3
:100CF000809160008D608093600078946FEF70E069
:100D00008BE00E9428016FEF70E08AE00E942801CA
:100D10006FEF70E089E00E9428016FEF70E088E0DB
:100D20000E94280180917A00806480937A006AEFA3
:100D300070E080E090E00E94A90180917A008F7BB2
:100D400080937A0070E060E08BE00E94280170E000
:100D500060E08AE00E94280170E060E089E00E9483
:100D6000280170E060E088E00E942801A895809149
:100D70006000877F80936000C0E0D0E06AE070E0B0
:100D800080E090E00E94A9012097C1F30E9400003A
:100D9000F5CFE4E4F2E01382128288EE93E0A0E063
:100DA000B0E084839583A683B78383E391E0918346
:100DB000808308950E94EE060C94CF070E94C80716
:100DC00058F00E94C10740F029F45F3F29F00C94CD
:100DD000B80751110C9403080C94BE070E94E00759
:100DE00068F39923B1F3552391F3951B550BBB275A
:100DF000AA2762177307840738F09F5F5F4F220F9F
:100E0000331F441FAA1FA9F335D00E2E3AF0E0E895
:100E100032D091505040E695001CCAF72BD0FE2FDF
:100E200029D0660F771F881FBB1F26173707480773
:100E3000AB07B0E809F0BB0B802DBF01FF2793582B
:100E40005F4F3AF09E3F510578F00C94B8070C9430
:100E500003085F3FE4F3983ED4F386957795679552
:100E6000B795F7959F5FC9F7880F911D9695879560
:100E700097F90895E1E0660F771F881FBB1F62177F
:100E800073078407BA0720F0621B730B840BBA0B3D
:100E9000EE1F88F7E09508950E94E80788F09F57B5
:100EA00098F0B92F9927B751B0F0E1F0660F771F8E
:100EB000881F991F1AF0BA95C9F714C0B13091F084
:100EC0000E940208B1E008950C940208672F782F61
:100ED0008827B85F39F0B93FCCF386957795679549
:100EE000B395D9F73EF490958095709561957F4FB5
:100EF0008F4F9F4F0895E89409C097FB3EF490955B
:100F00008095709561957F4F8F4F9F4F9923A9F0E2
:100F1000F92F96E9BB279395F69587957795679571
:100F2000B795F111F8CFFAF4BB0F11F460FF1BC0B5
:100F30006F5F7F4F8F4F9F4F16C0882311F096E948
:100F400011C0772321F09EE8872F762F05C06623F6
:100F500071F096E8862F70E060E02AF09A95660FAF
:100F6000771F881FDAF7880F9695879597F9089568
:100F700097F99F6780E870E060E008959FEF80EC4C
:100F8000089500240A9416161706180609060895EF
:100F900000240A9412161306140605060895092E55
:100FA0000394000C11F4882352F0BB0F40F4BF2BC4
:100FB00011F460FF04C06F5F7F4F8F4F9F4F089504
:100FC00057FD9058440F551F59F05F3F71F04795FA
:100FD000880F97FB991F61F09F3F79F087950895DF
:100FE000121613061406551FF2CF4695F1DF08C0FE
:100FF000161617061806991FF1CF8695710561051B
:1010000008940895E894BB2766277727CB0197F9C2
:10101000089597FB072E16F4009407D077FD09D0AA
:101020000E941D0807FC05D03EF4909581959F4FC6
:101030000895709561957F4F0895AA1BBB1B51E1E0
:1010400007C0AA1FBB1FA617B70710F0A61BB70B38
:10105000881F991F5A95A9F780959095BC01CD01DD
:101060000895EE0FFF1F0590F491E02D0994F89478
:02107000FFCFB0
:10107200BFBFBFBFBFBFBFBF0000803F00000000B7
:1010820000000000000000006C7473795F62313070
:10109200305F76303230000B000A00090008000091
:1010A20000000055024A0266022002430230022179
:0210B20002003A
:00000001FF
