:100000000C945D000C9485000C9485000C94850084
:100010000C9485000C9485000C9485000C9485004C
:100020000C9485000C9485000C9485000C9485003C
:100030000C9485000C9485000C9485000C9485002C
:100040000C940C030C9485000C9485000C94850092
:100050000C9485000C9485000C9485000C9485000C
:100060000C9456030C948500000000002400270027
:100070002A0000000000250028002B0004040404CE
:100080000404040402020202020203030303030342
:10009000010204081020408001020408102001021F
:1000A00004081020000000080002010000030407FB
:1000B0000000000000000000310511241FBECFEF3A
:1000C000D8E0DEBFCDBF11E0A0E0B1E0E4E9FAE0A6
:1000D00002C005900D92A232B107D9F721E0A2E249
:1000E000B1E001C01D92A63DB207E1F710E0CDE5F9
:1000F000D0E004C02197FE010E944205CC35D10713
:10010000C9F70E9475040C9448050C940000E09116
:10011000C801F091C901309729F01092C3011092E3
:10012000C20109940895CF93DF93AC01E091C60119
:10013000F091C7013097F1F09091C5018091C40111
:100140009817C0F090E0292F30E02617370754F4B5
:10015000D901AB5DBE4F240F351FE90128812C93D7
:100160009F5FF1CF1092C5016093C401CB01DF9175
:10017000CF910994DF91CF91089590E0FC01EC5567
:10018000FF4F2491FC01E057FF4F3491FC01E458EC
:10019000FF4FE491EE23C9F0222339F0233001F11F
:1001A000A8F4213019F1223029F1F0E0EE0FFF1F01
:1001B000EE58FF4FA591B4918FB7F894EC9161116F
:1001C00026C030953E233C938FBF08952730A9F079
:1001D0002830C9F0243049F7809180008F7D03C01A
:1001E000809180008F7780938000DFCF84B58F77F8
:1001F00084BDDBCF84B58F7DFBCF8091B0008F773E
:100200008093B000D2CF8091B0008F7DF9CF3E2B8C
:10021000DACFCF93DF9390E0FC01E057FF4F2491BA
:1002200084589F4FFC0184918823D1F090E0880F7F
:10023000991FFC01E859FF4FA591B491FC01EE58BC
:10024000FF4FC591D49161110EC09FB7F8948C9166
:10025000E22FE0958E238C932881E223E8839FBFD1
:10026000DF91CF9108958FB7F894EC91E22BEC9346
:100270008FBFF6CF3FB7F8948091BA019091BB0140
:10028000A091BC01B091BD0126B5A89B05C02F3F30
:1002900019F00196A11DB11D3FBFBA2FA92F982FAC
:1002A0008827BC01CD01620F711D811D911D42E0A7
:1002B000660F771F881F991F4A95D1F708952091DF
:1002C0006B01260F3327331F21323105ECF42091C7
:1002D0008F01FC0190E080E0243069F082E0089515
:1002E000A0916B012191AC01455B5E4FA40FB52F2E
:1002F000B11D2C930196861798F380916B01680FBE
:1003000060936B0180E0089581E0089510928F0161
:1003100081E0809391011092900161E082E10E945E
:10032000BD0061E083E10E94BD00E9EBF0E0808167
:100330008E7F808380818D7F808388E48093B80066
:1003400085E48093BC0008950895E091C5018091F3
:10035000C401E81730F4F0E0EB5DFE4F808190E0DF
:1003600008958FEF9FEF08959091C5018091C4018A
:100370002FEF3FEF981748F4E92FF0E0EB5DFE4FC9
:10038000208130E09F5F9093C501C901089580915D
:10039000C4019091C501891B990B0895CF93DF93F8
:1003A000CB01EA01642F0E945F01CE01DF91CF9162
:1003B0000895CF93DF931F92CDB7DEB7698361E0D5
:1003C000CE0101960E945F0181E090E00F90DF91E5
:1003D000CF91089590E080E00895809124018032CB
:1003E00041F44EE050E060E071E08AEC91E00C9462
:1003F000CE0108956F927F928F929F92AF92BF929B
:10040000CF92DF92EF92FF920F931F93CF93DF93E0
:100410008AE0682E712C99E0C92ED12C23E0A22EFF
:10042000B12C3BE0832E912C9091C4018091C501A9
:10043000981709F48BC08AEC91E00E94B4017C010A
:10044000EC01DD27C230D10539F1B4F4C130D1055A
:10045000F1F000912201109123010115110509F419
:1004600072C061E0802F0E9409012097F9F460E0DA
:10047000802F0E94BD0043C0C330D10591F0C4302D
:10048000D10539F7B0922301A0922201CDCF9092ED
:10049000230180922201C8CF709223016092220131
:1004A000C3CFD0922301C0922201BECFCF3FD1054E
:1004B00011F461E0DDCFF801FF27EC55FF4FE49127
:1004C000E33039F140F4E130B1F0E230E9F0C03826
:1004D000D1057CF7CCCFE73031F1E83061F1E43081
:1004E000B1F780918000806280938000D0938B0070
:1004F000C0938A0004C084B5806884BDE7BC1092B4
:1005000023011092220190CF84B5806284BDE8BCA3
:10051000F6CF80918000806880938000D09389001E
:10052000C0938800ECCF8091B00080688093B000C9
:10053000E092B300E4CF8091B00080628093B0007D
:10054000E092B400DCCFE09224016ECFDF91CF9136
:100550001F910F91FF90EF90DF90CF90BF90AF90E1
:100560009F908F907F906F900895CF93DF9385ED4C
:100570008093BC008091470190914801A09149016E
:10058000B0914A010796A11DB11D23E0B695A7952C
:10059000979587952A95D1F72091BC0024FD03C03B
:1005A00010928F0136C040914701509148016091EF
:1005B000490170914A01452B462B472B69F300975F
:1005C000A105B10541F025E32A95F1F70000019757
:1005D000A109B109E1CF8091460191E090934501D5
:1005E0008823B9F0C091B800D091BA008091BC00C6
:1005F0008A7B8093BC0060E082E10E94BD0060E0E5
:1006000083E10E94BD000E948601D093BA00C0938E
:10061000B800DF91CF9108951F920F920FB60F92FD
:1006200011242F933F938F939F93AF93BF93809108
:10063000B6019091B701A091B801B091B901309184
:10064000B50123E0230F2D3758F50196A11DB11DEB
:100650002093B5018093B6019093B701A093B801A0
:10066000B093B9018091BA019091BB01A091BC01F6
:10067000B091BD010196A11DB11D8093BA01909367
:10068000BB01A093BC01B093BD01BF91AF919F91FD
:100690008F913F912F910F900FBE0F901F90189543
:1006A00026E8230F0296A11DB11DD2CF1F920F92F3
:1006B0000FB60F9211242F933F934F935F936F9335
:1006C0007F938F939F93AF93BF93EF93FF9380910B
:1006D000B900887F803609F44AC0F0F5883209F401
:1006E000A7C018F5803109F49BC0B8F4882309F439
:1006F000F9C0883009F494C0FF91EF91BF91AF9198
:100700009F918F917F916F915F914F913F912F9129
:100710000F900FBE0F901F901895883109F488C074
:10072000803251F780938E0114C0803409F49DC04B
:1007300040F48033B9F38833F9F680938E0185EC69
:10074000B0C0803509F485C0883509F496C0883476
:1007500099F60E94B502D0CF883909F48CC038F5DB
:10076000883729F050F4883611F0803729F683E075
:1007700080938F0110928D0157C0883809F47BC097
:10078000803919F0803809F0B7CF80918D0180321F
:1007900008F071C0E0918D0181E08E0F80938D0192
:1007A0008091BB00F0E0E359FE4F80833DC0803B69
:1007B00039F0E0F4803A09F479C0883A09F09CCF26
:1007C00084E080938F0110926C0110926B01E09194
:1007D000C001F091C101099580916B0181110FC099
:1007E00081E080936B0110924B0109C0803C09F4B9
:1007F000A6CF883C09F4A3CF883B09F07DCFE091D8
:100800006C0181E08E0F80936C01F0E0E55BFE4FA0
:1008100080818093BB0090916C0180916B0129C015
:100820008091B4018093BB0085EC8093BC0064CFC1
:100830009091B3018091B201981758F5E091B301FE
:1008400081E08E0F8093B301F0E0EE56FE4F808181
:10085000E9CFE091B30181E08E0F8093B3018091E5
:10086000BB00F0E0EE56FE4F80839091B301809183
:10087000B2019817C8F285E8D8CFE091B30181E0C2
:100880008E0F8093B3018091BB00F0E0EE56FE4FD7
:1008900080838091910181115CCF81E080939001F0
:1008A00084EA8093BC0010928F0126CF85EC809360
:1008B000BC0010928F0180918D01803230F4E09164
:1008C0008D01F0E0E359FE4F108260918D0170E0E0
:1008D000E091BE01F091BF018DE691E00995109283
:1008E0008D010ACF10928E0134CF789484B5826046
:1008F00084BD84B5816084BD85B5826085BD85B5C4
:10090000816085BD80916E00816080936E00109241
:1009100081008091810082608093810080918100BC
:10092000816080938100809180008160809380004D
:100930008091B10084608093B1008091B0008160AB
:100940008093B00080917A00846080937A008091D7
:100950007A00826080937A0080917A00816080932F
:100960007A0080917A00806880937A001092C100AA
:1009700085B78F7E85BF88B1806388B987B18F7C4A
:1009800087B91092C5011092C4011092C301109250
:10099000C2010E94860187E890E09093C101809394
:1009A000C00183E990E09093BF018093BE0182E192
:1009B0008093BA008AEF91E09093C7018093C601BB
:1009C0008DEE91E09093C9018093C80160E081E1D0
:1009D0000E94090160E080E10E94090160E08FE06F
:1009E0000E94090160E08EE00E94090161E08BE055
:1009F0000E94090161E08AE00E94090161E089E04A
:100A00000E94090161E083E00E940901C0E0D0E09A
:100A10000E943A014B015C018AE0C82ED12CE12CE6
:100A2000F12C0E943A01681979098A099B09683EEC
:100A3000734081059105A8F321E0C21AD108E108AD
:100A4000F10888EE880E83E0981EA11CB11CC11429
:100A5000D104E104F10429F72097D1F20E940000AB
:100A6000D7CFEAECF1E01382128288EE93E0A0E0A7
:100A7000B0E084839583A683B78383E191E091837B
:100A800080830895EE0FFF1F0590F491E02D0994E7
:040A9000F894FFCF08
:100A94006C7473795F623130305F763031300000CE
:100AA400000000D901CE01EA01A401C701B401A5E7
:020AB40001003F
:00000001FF
