:100000000C945D000C9485000C9485000C94850084
:100010000C9485000C9485000C9485000C9485004C
:100020000C9485000C9485000C9485000C9485003C
:100030000C9485000C9485000C9485000C9485002C
:100040000C9426030C9485000C9485000C94850078
:100050000C9485000C9485000C9485000C9485000C
:100060000C9470030C94850000000000240027000D
:100070002A0000000000250028002B0004040404CE
:100080000404040402020202020203030303030342
:10009000010204081020408001020408102001021F
:1000A00004081020000000080002010000030407FB
:1000B00000000000000000004E0511241FBECFEF1D
:1000C000D8E0DEBFCDBF11E0A0E0B1E0EEECFAE099
:1000D00002C005900D92A832B107D9F721E0A8E23D
:1000E000B1E001C01D92AA3DB207E1F710E0CDE5F5
:1000F000D0E004C02197FE010E945F05CC35D107F6
:10010000C9F70E948F040C9465050C940000E091DF
:10011000CC01F091CD01309729F01092C7011092D7
:10012000C60109940895CF93DF93AC01E091CA0111
:10013000F091CB013097F1F09091C9018091C80105
:100140009817C0F090E0292F30E02617370754F4B5
:10015000D901A75DBE4F240F351FE90128812C93DB
:100160009F5FF1CF1092C9016093C801CB01DF916D
:10017000CF910994DF91CF91089590E0FC01EC5567
:10018000FF4F2491FC01E057FF4F3491FC01E458EC
:10019000FF4FE491EE23C9F0222339F0233001F11F
:1001A000A8F4213019F1223029F1F0E0EE0FFF1F01
:1001B000EE58FF4FA591B4918FB7F894EC9161116F
:1001C00026C030953E233C938FBF08952730A9F079
:1001D0002830C9F0243049F7809180008F7D03C01A
:1001E000809180008F7780938000DFCF84B58F77F8
:1001F00084BDDBCF84B58F7DFBCF8091B0008F773E
:100200008093B000D2CF8091B0008F7DF9CF3E2B8C
:10021000DACFCF93DF9390E0FC01E057FF4F2491BA
:1002200084589F4FFC0184918823D1F090E0880F7F
:10023000991FFC01E859FF4FA591B491FC01EE58BC
:10024000FF4FC591D49161110EC09FB7F8948C9166
:10025000E22FE0958E238C932881E223E8839FBFD1
:10026000DF91CF9108958FB7F894EC91E22BEC9346
:100270008FBFF6CF1F93CF93DF93182FEB0161E071
:100280000E940901209739F460E0812FDF91CF911E
:100290001F910C94BD00CF3FD10511F461E0F5CF63
:1002A000E12FF0E0EC55FF4FE491E33031F140F401
:1002B000E130B1F0E230E1F0C038D1057CF7E4CFB5
:1002C000E73029F1E83059F1E430B1F7809180004E
:1002D000806280938000D0938B00C0938A0004C01A
:1002E00084B5806884BDC7BDDF91CF911F9108950B
:1002F00084B5806284BDC8BDF7CF809180008068DE
:1003000080938000D0938900C0938800EDCF8091C6
:10031000B00080688093B000C093B300E5CF8091B7
:10032000B00080628093B000C093B400DDCF8E3007
:1003300008F08E508770806480937C0080917A00F2
:10034000806480937A0080917A0086FDFCCF809152
:1003500078009091790008953FB7F8948091BE019C
:100360009091BF01A091C001B091C10126B5A89B99
:1003700005C02F3F19F00196A11DB11D3FBFBA2F37
:10038000A92F982F8827BC01CD01620F711D811DF7
:10039000911D42E0660F771F881F991F4A95D1F77C
:1003A000089520916F01260F3327331F2132310525
:1003B000ECF420919301FC0190E080E0243069F09E
:1003C00082E00895A0916F012191AC01415B5E4FE5
:1003D000A40FB52FB11D2C930196861798F3809129
:1003E0006F01680F60936F0180E0089581E00895C8
:1003F0001092930181E0809395011092940161E045
:1004000082E10E94BD0061E083E10E94BD00E9EB52
:10041000F0E080818E7F808380818D7F808388E47F
:100420008093B80085E48093BC0008950895E0911E
:10043000C9018091C801E81730F4F0E0E75DFE4F94
:10044000808190E008958FEF9FEF08959091C9010A
:100450008091C8012FEF3FEF981748F4E92FF0E0A3
:10046000E75DFE4F208130E09F5F9093C901C90195
:1004700008958091C8019091C901891B990B089535
:10048000CF93DF93CB01EA01642F0E94D101CE010B
:10049000DF91CF910895CF93DF931F92CDB7DEB751
:1004A000698361E0CE0101960E94D10181E090E074
:1004B0000F90DF91CF91089590E080E008958091B2
:1004C0002801803241F44EE050E067E071E08EECAC
:1004D00091E00C9440020895CF93C5E09091C8013B
:1004E0008091C901981709F458C08EEC91E00E94E0
:1004F000260220910001243050F42111EFCFBC01DD
:1005000077278BE00E943A01C0930001E7CF9C015E
:10051000332721303105F9F02CF4232BC9F08093D7
:100520002801DCCF2230310541F123303105B9F704
:1005300083E00E949701909302018093010170E093
:1005400060E08115924014F46FEB70E083E012C01C
:1005500010920001C3CF8AE00E9497019093060198
:100560008093050170E060E08115924014F46FEB18
:1005700070E08AE00E943A01B1CF89E00E949701C1
:10058000909304018093030170E060E08115924034
:1005900014F46FEB70E089E0EDCFCF910895CF9325
:1005A000DF9385ED8093BC0080914B0190914C01CD
:1005B000A0914D01B0914E010796A11DB11D23E000
:1005C000B695A795979587952A95D1F72091BC0068
:1005D00024FD03C01092930136C040914B0150910D
:1005E0004C0160914D0170914E01452B462B472BDC
:1005F00069F30097A105B10541F025E32A95F1F7CC
:1006000000000197A109B109E1CF80914A0191E071
:10061000909349018823B9F0C091B800D091BA00F5
:100620008091BC008A7B8093BC0060E082E10E94E4
:10063000BD0060E083E10E94BD000E94F801D093FC
:10064000BA00C093B800DF91CF9108951F920F9226
:100650000FB60F9211242F933F938F939F93AF93D5
:10066000BF938091BA019091BB01A091BC01B09160
:10067000BD013091B90123E0230F2D3758F50196C4
:10068000A11DB11D2093B9018093BA019093BB01C4
:10069000A093BC01B093BD018091BE019091BF01B8
:1006A000A091C001B091C1010196A11DB11D80931F
:1006B000BE019093BF01A093C001B093C101BF914F
:1006C000AF919F918F913F912F910F900FBE0F90FF
:1006D0001F90189526E8230F0296A11DB11DD2CFB9
:1006E0001F920F920FB60F9211242F933F934F93A7
:1006F0005F936F937F938F939F93AF93BF93EF938A
:10070000FF938091B900887F803609F44AC0F0F5E4
:10071000883209F4A7C018F5803109F49BC0B8F4F9
:10072000882309F4F9C0883009F494C0FF91EF914F
:10073000BF91AF919F918F917F916F915F914F91F9
:100740003F912F910F900FBE0F901F9018958831F9
:1007500009F488C0803251F78093920114C080342C
:1007600009F49DC040F48033B9F38833F9F68093DF
:10077000920185ECB0C0803509F485C0883509F454
:1007800096C0883499F60E94CF02D0CF883909F4F8
:100790008CC038F5883729F050F4883611F080374E
:1007A00029F683E0809393011092910157C0883815
:1007B00009F47BC0803919F0803809F0B7CF8091F7
:1007C0009101803208F071C0E091910181E08E0FBB
:1007D000809391018091BB00F0E0EF58FE4F808341
:1007E0003DC0803B39F0E0F4803A09F479C0883AA2
:1007F00009F09CCF84E080939301109270011092D5
:100800006F01E091C401F091C501099580916F01DC
:1008100081110FC081E080936F0110924F0109C0D8
:10082000803C09F4A6CF883C09F4A3CF883B09F0AB
:100830007DCFE091700181E08E0F80937001F0E038
:10084000E15BFE4F80818093BB00909170018091AD
:100850006F0129C08091B8018093BB0085EC809323
:10086000BC0064CF9091B7018091B601981758F5FC
:10087000E091B70181E08E0F8093B701F0E0EA5676
:10088000FE4F8081E9CFE091B70181E08E0F809328
:10089000B7018091BB00F0E0EA56FE4F8083909153
:1008A000B7018091B6019817C8F285E8D8CFE091DA
:1008B000B70181E08E0F8093B7018091BB00F0E01B
:1008C000EA56FE4F80838091950181115CCF81E0D3
:1008D0008093940184EA8093BC001092930126CF08
:1008E00085EC8093BC00109293018091910180323D
:1008F00030F4E0919101F0E0EF58FE4F10826091EA
:10090000910170E0E091C201F091C30181E791E0B3
:100910000995109291010ACF1092920134CF7894E8
:1009200084B5826084BD84B5816084BD85B58260F4
:1009300085BD85B5816085BD80916E0081608093A5
:100940006E0010928100809181008260809381000E
:10095000809181008160809381008091800081601E
:10096000809380008091B10084608093B100809179
:10097000B00081608093B00080917A0084608093A1
:100980007A0080917A00826080937A0080917A0068
:10099000816080937A0080917A00806880937A00E9
:1009A0001092C10085B78F7E85BF88B1806388B9FA
:1009B00087B18F7C87B91092C9011092C80110923B
:1009C000C7011092C6010E94F80187E890E0909359
:1009D000C5018093C40183E990E09093C3018093A3
:1009E000C20180E38093BA008CE692E09093CB0141
:1009F0008093CA018FE592E09093CD018093CC0162
:100A000060E081E10E94090160E0809105010E949F
:100A1000090160E0809103010E94090160E080917A
:100A200001010E94090161E08BE00E94090161E07F
:100A30008AE00E94090161E089E00E94090161E009
:100A400083E00E940901C0E0D0E00E94AC014B01AC
:100A50005C018AE0C82ED12CE12CF12C0E94AC0163
:100A6000681979098A099B09683E734081059105D7
:100A7000A8F321E0C21AD108E108F10888EE880E37
:100A800083E0981EA11CB11CC114D104E104F1043F
:100A900029F72097D1F20E940000D7CFEEECF1E0C9
:100AA0001382128288EE93E0A0E0B0E08483958305
:100AB000A683B7838AE191E0918380830895EE0F46
:0E0AC000FF1F0590F491E02D0994F894FFCFEC
:100ACE00050E000F0010006C7473795F62313030C8
:100ADE005F7630313000000000004B0240025C02B5
:080AEE0016023902260217026C
:00000001FF
